{
  "address": "0x72159cC8fDA737460aA82e6C35de3fA21fCbB58d",
  "abi": [
    {
      "inputs": [
        {
          "internalType": "address",
          "name": "_initialOwner",
          "type": "address"
        }
      ],
      "stateMutability": "nonpayable",
      "type": "constructor"
    },
    {
      "inputs": [],
      "name": "ACCESS_DENIED",
      "type": "error"
    },
    {
      "inputs": [
        {
          "internalType": "address",
          "name": "target",
          "type": "address"
        }
      ],
      "name": "AddressEmptyCode",
      "type": "error"
    },
    {
      "inputs": [
        {
          "internalType": "address",
          "name": "account",
          "type": "address"
        }
      ],
      "name": "AddressInsufficientBalance",
      "type": "error"
    },
    {
      "inputs": [],
      "name": "DUPLICATE_RECIPIENT",
      "type": "error"
    },
    {
      "inputs": [],
      "name": "FailedInnerCall",
      "type": "error"
    },
    {
      "inputs": [],
      "name": "INSUFFICIENT_RECIPIENT_COUNT",
      "type": "error"
    },
    {
      "inputs": [],
      "name": "INSUFFICIENT_SPLIT_AMOUNT",
      "type": "error"
    },
    {
      "inputs": [],
      "name": "INVALID_INPUT",
      "type": "error"
    },
    {
      "inputs": [],
      "name": "INVALID_LOCK_ADDRESS",
      "type": "error"
    },
    {
      "inputs": [],
      "name": "INVALID_RECIPIENT",
      "type": "error"
    },
    {
      "inputs": [
        {
          "internalType": "address",
          "name": "owner",
          "type": "address"
        }
      ],
      "name": "OwnableInvalidOwner",
      "type": "error"
    },
    {
      "inputs": [
        {
          "internalType": "address",
          "name": "account",
          "type": "address"
        }
      ],
      "name": "OwnableUnauthorizedAccount",
      "type": "error"
    },
    {
      "inputs": [],
      "name": "ReentrancyGuardReentrantCall",
      "type": "error"
    },
    {
      "inputs": [
        {
          "internalType": "address",
          "name": "token",
          "type": "address"
        }
      ],
      "name": "SafeERC20FailedOperation",
      "type": "error"
    },
    {
      "inputs": [],
      "name": "TRANSFER_FAILED",
      "type": "error"
    },
    {
      "anonymous": false,
      "inputs": [
        {
          "indexed": true,
          "internalType": "address",
          "name": "sender",
          "type": "address"
        },
        {
          "indexed": false,
          "internalType": "address payable[]",
          "name": "recipients",
          "type": "address[]"
        },
        {
          "indexed": false,
          "internalType": "uint256[]",
          "name": "amounts",
          "type": "uint256[]"
        },
        {
          "indexed": false,
          "internalType": "contract IERC20",
          "name": "token",
          "type": "address"
        }
      ],
      "name": "Erc20Split",
      "type": "event"
    },
    {
      "anonymous": false,
      "inputs": [
        {
          "indexed": true,
          "internalType": "address",
          "name": "sender",
          "type": "address"
        },
        {
          "indexed": false,
          "internalType": "uint256",
          "name": "totalAmount",
          "type": "uint256"
        },
        {
          "indexed": false,
          "internalType": "address payable[]",
          "name": "recipients",
          "type": "address[]"
        },
        {
          "indexed": false,
          "internalType": "contract IERC20",
          "name": "token",
          "type": "address"
        }
      ],
      "name": "Erc20SplitEqual",
      "type": "event"
    },
    {
      "anonymous": false,
      "inputs": [
        {
          "indexed": true,
          "internalType": "address",
          "name": "sender",
          "type": "address"
        },
        {
          "indexed": false,
          "internalType": "uint256",
          "name": "totalAmount",
          "type": "uint256"
        },
        {
          "indexed": false,
          "internalType": "address payable[]",
          "name": "recipients",
          "type": "address[]"
        },
        {
          "indexed": false,
          "internalType": "uint256[]",
          "name": "amounts",
          "type": "uint256[]"
        }
      ],
      "name": "EthSplit",
      "type": "event"
    },
    {
      "anonymous": false,
      "inputs": [
        {
          "indexed": true,
          "internalType": "address",
          "name": "sender",
          "type": "address"
        },
        {
          "indexed": false,
          "internalType": "uint256",
          "name": "totalAmount",
          "type": "uint256"
        },
        {
          "indexed": false,
          "internalType": "address payable[]",
          "name": "recipients",
          "type": "address[]"
        }
      ],
      "name": "EthSplitEqual",
      "type": "event"
    },
    {
      "anonymous": false,
      "inputs": [
        {
          "indexed": false,
          "internalType": "bool",
          "name": "enabled",
          "type": "bool"
        }
      ],
      "name": "FeeSwitchToggled",
      "type": "event"
    },
    {
      "anonymous": false,
      "inputs": [
        {
          "indexed": true,
          "internalType": "address",
          "name": "previousOwner",
          "type": "address"
        },
        {
          "indexed": true,
          "internalType": "address",
          "name": "newOwner",
          "type": "address"
        }
      ],
      "name": "OwnershipTransferred",
      "type": "event"
    },
    {
      "anonymous": false,
      "inputs": [
        {
          "indexed": true,
          "internalType": "address",
          "name": "lockAddress",
          "type": "address"
        }
      ],
      "name": "SplitLockUpdated",
      "type": "event"
    },
    {
      "inputs": [],
      "name": "feeSwitch",
      "outputs": [
        {
          "internalType": "bool",
          "name": "",
          "type": "bool"
        }
      ],
      "stateMutability": "view",
      "type": "function"
    },
    {
      "inputs": [
        {
          "internalType": "address",
          "name": "user",
          "type": "address"
        }
      ],
      "name": "getKeyExpiration",
      "outputs": [
        {
          "internalType": "uint256",
          "name": "",
          "type": "uint256"
        }
      ],
      "stateMutability": "view",
      "type": "function"
    },
    {
      "inputs": [
        {
          "internalType": "address",
          "name": "user",
          "type": "address"
        }
      ],
      "name": "hasAccess",
      "outputs": [
        {
          "internalType": "bool",
          "name": "",
          "type": "bool"
        }
      ],
      "stateMutability": "view",
      "type": "function"
    },
    {
      "inputs": [],
      "name": "owner",
      "outputs": [
        {
          "internalType": "address",
          "name": "",
          "type": "address"
        }
      ],
      "stateMutability": "view",
      "type": "function"
    },
    {
      "inputs": [],
      "name": "renounceOwnership",
      "outputs": [],
      "stateMutability": "nonpayable",
      "type": "function"
    },
    {
      "inputs": [
        {
          "internalType": "address",
          "name": "_splitLock",
          "type": "address"
        }
      ],
      "name": "setSplitLock",
      "outputs": [],
      "stateMutability": "nonpayable",
      "type": "function"
    },
    {
      "inputs": [
        {
          "internalType": "contract IERC20",
          "name": "token",
          "type": "address"
        },
        {
          "internalType": "address payable[]",
          "name": "recipients",
          "type": "address[]"
        },
        {
          "internalType": "uint256[]",
          "name": "amounts",
          "type": "uint256[]"
        }
      ],
      "name": "splitERC20",
      "outputs": [],
      "stateMutability": "nonpayable",
      "type": "function"
    },
    {
      "inputs": [
        {
          "internalType": "address payable[]",
          "name": "recipients",
          "type": "address[]"
        },
        {
          "internalType": "uint256[]",
          "name": "amounts",
          "type": "uint256[]"
        }
      ],
      "name": "splitETH",
      "outputs": [],
      "stateMutability": "payable",
      "type": "function"
    },
    {
      "inputs": [
        {
          "internalType": "contract IERC20",
          "name": "token",
          "type": "address"
        },
        {
          "internalType": "address payable[]",
          "name": "recipients",
          "type": "address[]"
        },
        {
          "internalType": "uint256",
          "name": "totalAmount",
          "type": "uint256"
        }
      ],
      "name": "splitEqualERC20",
      "outputs": [],
      "stateMutability": "nonpayable",
      "type": "function"
    },
    {
      "inputs": [
        {
          "internalType": "address payable[]",
          "name": "recipients",
          "type": "address[]"
        }
      ],
      "name": "splitEqualETH",
      "outputs": [],
      "stateMutability": "payable",
      "type": "function"
    },
    {
      "inputs": [],
      "name": "splitLock",
      "outputs": [
        {
          "internalType": "address",
          "name": "",
          "type": "address"
        }
      ],
      "stateMutability": "view",
      "type": "function"
    },
    {
      "inputs": [
        {
          "internalType": "bool",
          "name": "_enabled",
          "type": "bool"
        }
      ],
      "name": "toggleFeeSwitch",
      "outputs": [],
      "stateMutability": "nonpayable",
      "type": "function"
    },
    {
      "inputs": [
        {
          "internalType": "address",
          "name": "newOwner",
          "type": "address"
        }
      ],
      "name": "transferOwnership",
      "outputs": [],
      "stateMutability": "nonpayable",
      "type": "function"
    },
    {
      "inputs": [
        {
          "internalType": "contract IERC20",
          "name": "token",
          "type": "address"
        }
      ],
      "name": "withdraw",
      "outputs": [],
      "stateMutability": "nonpayable",
      "type": "function"
    },
    {
      "stateMutability": "payable",
      "type": "receive"
    }
  ],
  "transactionHash": "0xea1c7b2fa3026bf5defec97cd8e7cfafd873fc5c125adb833907bfb642838b1e",
  "args": [
    "0xd443188B33a13A24F63AC3A49d54DB97cf64349A"
  ],
  "numDeployments": 1,
  "solcInputHash": "d93582f8f802d01c8515437a306656d3",
  "bytecode": "0x60806040526001805460ff60a01b191690553480156200001e57600080fd5b5060405162001d4938038062001d498339810160408190526200004191620000db565b6001600055806001600160a01b0381166200007657604051631e4fbdf760e01b81526000600482015260240160405180910390fd5b620000818162000089565b50506200010d565b600180546001600160a01b038381166001600160a01b0319831681179093556040519116919082907f8be0079c531659141344cd1fd0a4f28419497f9722a3daafe3b4186f6b6457e090600090a35050565b600060208284031215620000ee57600080fd5b81516001600160a01b03811681146200010657600080fd5b9392505050565b611c2c806200011d6000396000f3fe6080604052600436106100e15760003560e01c806382a86d9e1161007f57806395a078e81161005957806395a078e814610244578063a0cc5ac814610264578063a6471e1414610284578063f2fde38b146102a457600080fd5b806382a86d9e146101d557806388916b5b146101f55780638da5cb5b1461022657600080fd5b806357759c5c116100bb57806357759c5c1461015f57806367c8810f1461017f5780636f949ad0146101ad578063715018a6146101c057600080fd5b80630b1034b1146100ed57806319d5b0081461010257806351cff8d91461013f57600080fd5b366100e857005b600080fd5b6101006100fb3660046117be565b6102c4565b005b34801561010e57600080fd5b50600254610122906001600160a01b031681565b6040516001600160a01b0390911681526020015b60405180910390f35b34801561014b57600080fd5b5061010061015a366004611815565b61060c565b34801561016b57600080fd5b5061010061017a366004611815565b6107a7565b34801561018b57600080fd5b5061019f61019a366004611815565b610887565b604051908152602001610136565b6101006101bb366004611832565b610930565b3480156101cc57600080fd5b50610100610b9b565b3480156101e157600080fd5b506101006101f036600461189e565b610baf565b34801561020157600080fd5b5060015461021690600160a01b900460ff1681565b6040519015158152602001610136565b34801561023257600080fd5b506001546001600160a01b0316610122565b34801561025057600080fd5b5061021661025f366004611815565b610da0565b34801561027057600080fd5b5061010061027f36600461192f565b610e42565b34801561029057600080fd5b5061010061029f36600461194c565b610ea2565b3480156102b057600080fd5b506101006102bf366004611815565b611178565b6102cc6111b8565b600154600160a01b900460ff1680156102ef57506002546001600160a01b031615155b1561038157600254604051631b63a96d60e21b81523360048201526001600160a01b03909116908190636d8ea5b490602401602060405180830381865afa15801561033e573d6000803e3d6000fd5b505050506040513d601f19601f8201168201806040525081019061036291906119a8565b61037f576040516395383ea160e01b815260040160405180910390fd5b505b81818060005b8181101561044a57600061039c8260016119db565b90505b82811015610437578484828181106103b9576103b96119ee565b90506020020160208101906103ce9190611815565b6001600160a01b03168585848181106103e9576103e96119ee565b90506020020160208101906103fe9190611815565b6001600160a01b03160361042557604051632f119e0960e11b815260040160405180910390fd5b8061042f81611a04565b91505061039f565b508061044281611a04565b915050610387565b50348460006104598284611a33565b905060006104678385611a47565b905060198311806104785750600283105b156104965760405163393f616160e01b815260040160405180910390fd5b60005b838110156105b15760008a8a838181106104b5576104b56119ee565b90506020020160208101906104ca9190611815565b6001600160a01b0316036104f15760405163290802d360e11b815260040160405180910390fd5b8260008290036105085761050583826119db565b90505b60008b8b8481811061051c5761051c6119ee565b90506020020160208101906105319190611815565b6001600160a01b031682614e2090604051600060405180830381858888f193505050503d8060008114610580576040519150601f19603f3d011682016040523d82523d6000602084013e610585565b606091505b50509050806105a757604051631fa55c0760e11b815260040160405180910390fd5b5050600101610499565b50336001600160a01b03167f87f1eb586b0382990a8813b3bf1c9381de2d895114d7d2fc3277ccc737bcefcd348b8b6040516105ef93929190611aa4565b60405180910390a2505050505050506106086001600055565b5050565b6106146111e2565b6001600160a01b0381166106ac5760006106366001546001600160a01b031690565b6001600160a01b031647614e2090604051600060405180830381858888f193505050503d8060008114610685576040519150601f19603f3d011682016040523d82523d6000602084013e61068a565b606091505b505090508061060857604051631fa55c0760e11b815260040160405180910390fd5b806001600160a01b031663a9059cbb6106cd6001546001600160a01b031690565b6040516370a0823160e01b81523060048201526001600160a01b038516906370a0823190602401602060405180830381865afa158015610711573d6000803e3d6000fd5b505050506040513d601f19601f820116820180604052508101906107359190611ac7565b6040516001600160e01b031960e085901b1681526001600160a01b03909216600483015260248201526044016020604051808303816000875af1158015610780573d6000803e3d6000fd5b505050506040513d601f19601f8201168201806040525081019061060891906119a8565b50565b6107af6111e2565b6001600160a01b0381161561083d57604051631b63a96d60e21b81523060048201526001600160a01b03821690636d8ea5b490602401602060405180830381865afa92505050801561081e575060408051601f3d908101601f1916820190925261081b918101906119a8565b60015b61083b576040516378aa4a6160e01b815260040160405180910390fd5b505b600280546001600160a01b0319166001600160a01b0383169081179091556040517f23afc7d08d1edd1530d578faf4f81c3e6999c0fc3adb3882c0141a8a08c63e1490600090a250565b600154600090600160a01b900460ff1615806108ac57506002546001600160a01b0316155b156108b957506000919050565b6002546040516355efc16760e11b81526001600160a01b03848116600483015290911690819063abdf82ce90602401602060405180830381865afa158015610905573d6000803e3d6000fd5b505050506040513d601f19601f820116820180604052508101906109299190611ac7565b9392505050565b6109386111b8565b600154600160a01b900460ff16801561095b57506002546001600160a01b031615155b156109ed57600254604051631b63a96d60e21b81523360048201526001600160a01b03909116908190636d8ea5b490602401602060405180830381865afa1580156109aa573d6000803e3d6000fd5b505050506040513d601f19601f820116820180604052508101906109ce91906119a8565b6109eb576040516395383ea160e01b815260040160405180910390fd5b505b83838060005b81811015610ab6576000610a088260016119db565b90505b82811015610aa357848482818110610a2557610a256119ee565b9050602002016020810190610a3a9190611815565b6001600160a01b0316858584818110610a5557610a556119ee565b9050602002016020810190610a6a9190611815565b6001600160a01b031603610a9157604051632f119e0960e11b815260040160405180910390fd5b80610a9b81611a04565b915050610a0b565b5080610aae81611a04565b9150506109f3565b506000610ac6888888883461120f565b9050336001600160a01b03167fce4a1ba06513226cf23618c48cd2a2d391b00be6079ac669924fa0218cca152b348a8a8a8a604051610b09959493929190611b12565b60405180910390a28015610b87576040516000903390614e2090849084818181858888f193505050503d8060008114610b5e576040519150601f19603f3d011682016040523d82523d6000602084013e610b63565b606091505b5050905080610b8557604051631fa55c0760e11b815260040160405180910390fd5b505b50505050610b956001600055565b50505050565b610ba36111e2565b610bad60006113f1565b565b610bb76111b8565b600154600160a01b900460ff168015610bda57506002546001600160a01b031615155b15610c6c57600254604051631b63a96d60e21b81523360048201526001600160a01b03909116908190636d8ea5b490602401602060405180830381865afa158015610c29573d6000803e3d6000fd5b505050506040513d601f19601f82011682018060405250810190610c4d91906119a8565b610c6a576040516395383ea160e01b815260040160405180910390fd5b505b83838060005b81811015610d35576000610c878260016119db565b90505b82811015610d2257848482818110610ca457610ca46119ee565b9050602002016020810190610cb99190611815565b6001600160a01b0316858584818110610cd457610cd46119ee565b9050602002016020810190610ce99190611815565b6001600160a01b031603610d1057604051632f119e0960e11b815260040160405180910390fd5b80610d1a81611a04565b915050610c8a565b5080610d2d81611a04565b915050610c72565b50610d438888888888611443565b336001600160a01b03167f4114dcfe2aaaf6aa4f0734763cbe121058528a2e296173d8a63900e13966e064888888888d604051610d84959493929190611b3f565b60405180910390a2505050610d996001600055565b5050505050565b600154600090600160a01b900460ff161580610dc557506002546001600160a01b0316155b15610dd257506001919050565b600254604051631b63a96d60e21b81526001600160a01b038481166004830152909116908190636d8ea5b490602401602060405180830381865afa158015610e1e573d6000803e3d6000fd5b505050506040513d601f19601f8201168201806040525081019061092991906119a8565b610e4a6111e2565b60018054821515600160a01b0260ff60a01b199091161790556040517fa9ff9e23d584c4bff32e498bd1f6ef2cafe812447499c0e1a4a1613adc77689f90610e9790831515815260200190565b60405180910390a150565b610eaa6111b8565b600154600160a01b900460ff168015610ecd57506002546001600160a01b031615155b15610f5f57600254604051631b63a96d60e21b81523360048201526001600160a01b03909116908190636d8ea5b490602401602060405180830381865afa158015610f1c573d6000803e3d6000fd5b505050506040513d601f19601f82011682018060405250810190610f4091906119a8565b610f5d576040516395383ea160e01b815260040160405180910390fd5b505b82828060005b81811015611028576000610f7a8260016119db565b90505b8281101561101557848482818110610f9757610f976119ee565b9050602002016020810190610fac9190611815565b6001600160a01b0316858584818110610fc757610fc76119ee565b9050602002016020810190610fdc9190611815565b6001600160a01b03160361100357604051632f119e0960e11b815260040160405180910390fd5b8061100d81611a04565b915050610f7d565b508061102081611a04565b915050610f65565b508460198111806110395750600281105b156110575760405163393f616160e01b815260040160405180910390fd5b60006110638287611a33565b905060006110718388611a47565b905060005b838110156111205760008a8a83818110611092576110926119ee565b90506020020160208101906110a79190611815565b6001600160a01b0316036110ce5760405163290802d360e11b815260040160405180910390fd5b8260008290036110e5576110e283826119db565b90505b6111178c338d8d868181106110fc576110fc6119ee565b90506020020160208101906111119190611815565b84611580565b50600101611076565b50336001600160a01b03167f76a95c273288c88de8fb190aa9eb3e12866d73a32acf083fa4642a89b7fa523d888b8b8e6040516111609493929190611b81565b60405180910390a2505050505050610b956001600055565b6111806111e2565b6001600160a01b0381166111af57604051631e4fbdf760e01b8152600060048201526024015b60405180910390fd5b6107a4816113f1565b6002600054036111db57604051633ee5aeb560e01b815260040160405180910390fd5b6002600055565b6001546001600160a01b03163314610bad5760405163118cdaa760e01b81523360048201526024016111a6565b6000848381146112325760405163b68600c760e01b815260040160405180910390fd5b60198111806112415750600281105b1561125f5760405163393f616160e01b815260040160405180910390fd5b6000805b828110156113da57600089898381811061127f5761127f6119ee565b90506020020160208101906112949190611815565b6001600160a01b0316036112bb5760405163290802d360e11b815260040160405180910390fd5b8686828181106112cd576112cd6119ee565b905060200201356000036112f457604051631161496d60e01b815260040160405180910390fd5b868682818110611306576113066119ee565b905060200201358261131891906119db565b9150600089898381811061132e5761132e6119ee565b90506020020160208101906113439190611815565b6001600160a01b031688888481811061135e5761135e6119ee565b90506020020135614e2090604051600060405180830381858888f193505050503d80600081146113aa576040519150601f19603f3d011682016040523d82523d6000602084013e6113af565b606091505b50509050806113d157604051631fa55c0760e11b815260040160405180910390fd5b50600101611263565b506113e58185611bb4565b98975050505050505050565b600180546001600160a01b038381166001600160a01b0319831681179093556040519116919082907f8be0079c531659141344cd1fd0a4f28419497f9722a3daafe3b4186f6b6457e090600090a35050565b828181146114645760405163b68600c760e01b815260040160405180910390fd5b60198111806114735750600281105b156114915760405163393f616160e01b815260040160405180910390fd5b60005b818110156115775760008686838181106114b0576114b06119ee565b90506020020160208101906114c59190611815565b6001600160a01b0316036114ec5760405163290802d360e11b815260040160405180910390fd5b8383828181106114fe576114fe6119ee565b9050602002013560000361152557604051631161496d60e01b815260040160405180910390fd5b61156f873388888581811061153c5761153c6119ee565b90506020020160208101906115519190611815565b878786818110611563576115636119ee565b90506020020135611580565b600101611494565b50505050505050565b604080516001600160a01b038581166024830152848116604483015260648083018590528351808403909101815260849092019092526020810180516001600160e01b03166323b872dd60e01b179052610b95918691906000906115e690841683611639565b9050805160001415801561160b57508080602001905181019061160991906119a8565b155b1561163457604051635274afe760e01b81526001600160a01b03841660048201526024016111a6565b505050565b606061164783836000611650565b90505b92915050565b6060814710156116755760405163cd78605960e01b81523060048201526024016111a6565b600080856001600160a01b031684866040516116919190611bc7565b60006040518083038185875af1925050503d80600081146116ce576040519150601f19603f3d011682016040523d82523d6000602084013e6116d3565b606091505b50915091506116e38683836116ed565b9695505050505050565b606082611702576116fd82611749565b610929565b815115801561171957506001600160a01b0384163b155b1561174257604051639996b31560e01b81526001600160a01b03851660048201526024016111a6565b5080610929565b8051156117595780518082602001fd5b604051630a12f52160e11b815260040160405180910390fd5b60008083601f84011261178457600080fd5b50813567ffffffffffffffff81111561179c57600080fd5b6020830191508360208260051b85010111156117b757600080fd5b9250929050565b600080602083850312156117d157600080fd5b823567ffffffffffffffff8111156117e857600080fd5b6117f485828601611772565b90969095509350505050565b6001600160a01b03811681146107a457600080fd5b60006020828403121561182757600080fd5b813561092981611800565b6000806000806040858703121561184857600080fd5b843567ffffffffffffffff8082111561186057600080fd5b61186c88838901611772565b9096509450602087013591508082111561188557600080fd5b5061189287828801611772565b95989497509550505050565b6000806000806000606086880312156118b657600080fd5b85356118c181611800565b9450602086013567ffffffffffffffff808211156118de57600080fd5b6118ea89838a01611772565b9096509450604088013591508082111561190357600080fd5b5061191088828901611772565b969995985093965092949392505050565b80151581146107a457600080fd5b60006020828403121561194157600080fd5b813561092981611921565b6000806000806060858703121561196257600080fd5b843561196d81611800565b9350602085013567ffffffffffffffff81111561198957600080fd5b61199587828801611772565b9598909750949560400135949350505050565b6000602082840312156119ba57600080fd5b815161092981611921565b634e487b7160e01b600052601160045260246000fd5b8082018082111561164a5761164a6119c5565b634e487b7160e01b600052603260045260246000fd5b600060018201611a1657611a166119c5565b5060010190565b634e487b7160e01b600052601260045260246000fd5b600082611a4257611a42611a1d565b500490565b600082611a5657611a56611a1d565b500690565b8183526000602080850194508260005b85811015611a99578135611a7e81611800565b6001600160a01b031687529582019590820190600101611a6b565b509495945050505050565b838152604060208201526000611abe604083018486611a5b565b95945050505050565b600060208284031215611ad957600080fd5b5051919050565b81835260006001600160fb1b03831115611af957600080fd5b8260051b80836020870137939093016020019392505050565b858152606060208201526000611b2c606083018688611a5b565b82810360408401526113e5818587611ae0565b606081526000611b53606083018789611a5b565b8281036020840152611b66818688611ae0565b91505060018060a01b03831660408301529695505050505050565b848152606060208201526000611b9b606083018587611a5b565b905060018060a01b038316604083015295945050505050565b8181038181111561164a5761164a6119c5565b6000825160005b81811015611be85760208186018101518583015201611bce565b50600092019182525091905056fea2646970667358221220061f2d1962ae41e1dee465c884e424d1d0431d1faeeb138d1ff7b6fbf6e11cf364736f6c63430008140033",
  "devdoc": {
    "errors": {
      "AddressEmptyCode(address)": [
        {
          "details": "There's no code at `target` (it is not a contract)."
        }
      ],
      "AddressInsufficientBalance(address)": [
        {
          "details": "The ETH balance of the account is not enough to perform the operation."
        }
      ],
      "FailedInnerCall()": [
        {
          "details": "A call to an address target failed. The target may have reverted."
        }
      ],
      "OwnableInvalidOwner(address)": [
        {
          "details": "The owner is not a valid owner account. (eg. `address(0)`)"
        }
      ],
      "OwnableUnauthorizedAccount(address)": [
        {
          "details": "The caller account is not authorized to perform an operation."
        }
      ],
      "ReentrancyGuardReentrantCall()": [
        {
          "details": "Unauthorized reentrant call."
        }
      ],
      "SafeERC20FailedOperation(address)": [
        {
          "details": "An operation with an ERC20 token failed."
        }
      ]
    },
    "kind": "dev",
    "methods": {
      "constructor": {
        "params": {
          "_initialOwner": "The initial owner of the contract"
        }
      },
      "getKeyExpiration(address)": {
        "params": {
          "user": "The address to check"
        },
        "returns": {
          "_0": "expiration The expiration timestamp (0 if no key or feeSwitch is off)"
        }
      },
      "hasAccess(address)": {
        "params": {
          "user": "The address to check"
        },
        "returns": {
          "_0": "hasAccess True if user has access"
        }
      },
      "owner()": {
        "details": "Returns the address of the current owner."
      },
      "renounceOwnership()": {
        "details": "Leaves the contract without owner. It will not be possible to call `onlyOwner` functions. Can only be called by the current owner. NOTE: Renouncing ownership will leave the contract without an owner, thereby disabling any functionality that is only available to the owner."
      },
      "setSplitLock(address)": {
        "params": {
          "_splitLock": "The Unlock Protocol lock address"
        }
      },
      "splitERC20(address,address[],uint256[])": {
        "params": {
          "amounts": "The amounts each recipient shall receive",
          "recipients": "The noble recipients of the ERC20 tokens",
          "token": "The token of friendship to be shared amongst the recipients"
        }
      },
      "splitETH(address[],uint256[])": {
        "params": {
          "amounts": "The amounts each recipient shall receive",
          "recipients": "The noble recipients of the ETH"
        }
      },
      "splitEqualERC20(address,address[],uint256)": {
        "params": {
          "recipients": "The noble recipients of the ERC20 tokens",
          "token": "The token of friendship to be shared amongst the recipients",
          "totalAmount": "The total amount to be shared"
        }
      },
      "splitEqualETH(address[])": {
        "details": "The contract gracefully adds any leftover dust to the amount to be received by the first recipient in the input array.",
        "params": {
          "recipients": "The noble recipients of the ETH"
        }
      },
      "toggleFeeSwitch(bool)": {
        "params": {
          "_enabled": "Whether to enable token-gating"
        }
      },
      "transferOwnership(address)": {
        "details": "Transfers ownership of the contract to a new account (`newOwner`). Can only be called by the current owner."
      },
      "withdraw(address)": {
        "params": {
          "token": "The address of the ERC20 token, or 0 for ETH"
        }
      }
    },
    "version": 1
  },
  "userdoc": {
    "kind": "user",
    "methods": {
      "constructor": {
        "notice": "The constructor sets the owner of the contract"
      },
      "getKeyExpiration(address)": {
        "notice": "Get key expiration timestamp for a user"
      },
      "hasAccess(address)": {
        "notice": "Check if an address has access to protected functions"
      },
      "setSplitLock(address)": {
        "notice": "Set the splitLock address for token-gating"
      },
      "splitERC20(address,address[],uint256[])": {
        "notice": "Splits the ERC20 tokens amongst the given recipients, according to the specified amounts"
      },
      "splitETH(address[],uint256[])": {
        "notice": "Splits the ETH amongst the given recipients, according to the specified amounts"
      },
      "splitEqualERC20(address,address[],uint256)": {
        "notice": "Splits the ERC20 tokens equally amongst the given recipients"
      },
      "splitEqualETH(address[])": {
        "notice": "Splits the ETH equally amongst the given recipients"
      },
      "toggleFeeSwitch(bool)": {
        "notice": "Toggle the feeSwitch on or off"
      },
      "withdraw(address)": {
        "notice": "Withdraws the remaining ETH or ERC20 tokens to the owner's address"
      }
    },
    "version": 1
  },
  "storageLayout": {
    "storage": [
      {
        "astId": 845,
        "contract": "contracts/Splitter.sol:DGTokenSplitter",
        "label": "_status",
        "offset": 0,
        "slot": "0",
        "type": "t_uint256"
      },
      {
        "astId": 8,
        "contract": "contracts/Splitter.sol:DGTokenSplitter",
        "label": "_owner",
        "offset": 0,
        "slot": "1",
        "type": "t_address"
      },
      {
        "astId": 950,
        "contract": "contracts/Splitter.sol:DGTokenSplitter",
        "label": "feeSwitch",
        "offset": 20,
        "slot": "1",
        "type": "t_bool"
      },
      {
        "astId": 952,
        "contract": "contracts/Splitter.sol:DGTokenSplitter",
        "label": "splitLock",
        "offset": 0,
        "slot": "2",
        "type": "t_address"
      }
    ],
    "types": {
      "t_address": {
        "encoding": "inplace",
        "label": "address",
        "numberOfBytes": "20"
      },
      "t_bool": {
        "encoding": "inplace",
        "label": "bool",
        "numberOfBytes": "1"
      },
      "t_uint256": {
        "encoding": "inplace",
        "label": "uint256",
        "numberOfBytes": "32"
      }
    }
  }
}